:100000000C9434000C943E000C943E000C943E0082
:100010000C943E000C943E000C943E000C943E0068
:100020000C943E000C943E000C943E000C9437015E
:100030000C943E000C943E000C943E000C943E0048
:100040000C943E000C943E000C943E000C943E0038
:100050000C943E000C943E000C943E000C943E0028
:100060000C943E000C943E0011241FBECFEFD8E04C
:10007000DEBFCDBF0E9440000C945B010C940000D9
:1000800061E070E08DE090E00E9449000E94120162
:10009000FFCF8830910500F56130710569F44AB1F0
:1000A00021E030E0B90102C0660F771F8A95E2F7C0
:1000B000CB01842B8AB90895672BA9F54AB121E0B9
:1000C00030E0B90102C0660F771F8A95E2F7CB01D5
:1000D000809584238AB908959C01285031092630DF
:1000E000310508F56130710571F444B1C90121E0B1
:1000F00030E0B90102C0660F771F8A95E2F7CB01A5
:10010000842B84B90895672B71F444B1089721E0DA
:1001100030E0B90102C0660F771F8A95E2F7CB0184
:100120008095842384B908958830910520F51616AA
:1001300017065CF44BB121E030E0082E02C0220F1C
:10014000331F0A94E2F7242B2BB96115710599F43A
:100150004BB121E030E0082E02C0220F331F0A9479
:10016000E2F7209524232BB99C0128503109263031
:100170003105B8F008959C01285031092630310529
:10018000F0F4161617065CF445B1F90121E030E0F1
:1001900002C0220F331FEA95E2F7242B25B9672B03
:1001A00071F445B1089721E030E0B90102C0660F53
:1001B000771F8A95E2F7CB018095842385B908954E
:1001C0008830910588F429B1222331F1089721E084
:1001D00030E002C0220F331F8A95E2F781E090E001
:1001E000232BF9F480E008959C0128503109263032
:1001F000310588F423B1222391F0089721E030E003
:1002000002C0220F331F8A95E2F781E090E0232B92
:1002100041F480E00895089580E090E0089580E042
:1002200090E00895E1E8F0E080818C608083109296
:1002300085001092840082E19AE790938900809370
:100240008800EFE6F0E080818260808378940895F2
:100250008DE090E00E94E00061E070E0892B11F0F9
:1002600060E070E08DE090E00E94940008951F929D
:100270000F920FB60F9211242F933F934F935F93DA
:100280006F937F938F939F93AF93BF93EF93FF935E
:100290000E942801FF91EF91BF91AF919F918F91A3
:1002A0007F916F915F914F913F912F910F900FBE72
:0A02B0000F901F901895F894FFCFEF
:00000001FF
