:100000000C9434000C9451000C9451000C94510049
:100010000C9451000C9451000C9451000C9451001C
:100020000C9451000C9451000C9451000C94280233
:100030000C9451000C9451000C9451000C945100FC
:100040000C9451000C9451000C9451000C945100EC
:100050000C9451000C9451000C9451000C945100DC
:100060000C9451000C94510011241FBECFEFD8E026
:10007000DEBFCDBF11E0A0E0B1E0E4E6F0E102C0F8
:1000800005900D92A238B107D9F722E0A2E8B1E0BD
:1000900001C01D92A237B207E1F70E949C000C94A8
:1000A00030080C940000C4E1D1E061E070E08DE024
:1000B00090E00E942701DF93CF930E945E050F908E
:1000C0000F90F3CFCCE1D1E0DF93CF930E945E0598
:1000D0000F900F90F9CFC3E2D1E08091820190910F
:1000E00083010E9405039F938F93DF93CF930E9418
:1000F0005E05809182019091830101969093830126
:100100008093820160E070E08DE090E00E94270122
:100110000F900F900F900F90E0CFCFE2D1E00E94B0
:100120002D039F938F93DF93CF930E945E050F90D3
:100130000F900F900F90F3CF0E94C40361E070E026
:100140008DE090E00E94DC0081E090E090938501DA
:100150008093840184E891E09093870180938601E5
:100160000E94ED0229E331E046E950E064E183E5D5
:1001700090E00E94A9012DE131E046E950E061E004
:1001800082E690E00E94A90120E431E046E950E0D7
:100190006CE08DE890E00E94A90126E431E046E998
:1001A00050E062E08BE690E00E94A90180E50E94A9
:1001B000840180E090E008958830910500F5613079
:1001C000710569F44AB121E030E0B90102C0660F5F
:1001D000771F8A95E2F7CB01842B8AB90895672BA4
:1001E000A9F54AB121E030E0B90102C0660F771FDE
:1001F0008A95E2F7CB01809584238AB908959C0102
:10020000285031092630310508F56130710571F447
:1002100044B1C90121E030E0B90102C0660F771F87
:100220008A95E2F7CB01842B84B90895672B71F48A
:1002300044B1089721E030E0B90102C0660F771F92
:100240008A95E2F7CB018095842384B9089588309C
:10025000910520F5161617065CF44BB121E030E04D
:10026000082E02C0220F331F0A94E2F7242B2BB969
:100270006115710599F44BB121E030E0082E02C000
:10028000220F331F0A94E2F7209524232BB99C01F7
:100290002850310926303105B8F008959C012850C6
:1002A000310926303105F0F4161617065CF445B115
:1002B000F90121E030E002C0220F331FEA95E2F796
:1002C000242B25B9672B71F445B1089721E030E064
:1002D000B90102C0660F771F8A95E2F7CB018095BE
:1002E000842385B90895E1E8F0E080818C60808303
:1002F000EFE6F0E08081826080838CE390EF909362
:10030000890080938800089526E632E030938901C1
:100310002093880180938D0180918C011F928F938F
:100320008EE491E09F938F930E945E052FEF87EA02
:1003300091E6215080409040E1F700C000007894A1
:100340000F900F900F900F9080E791E00E9474053E
:10035000FBCFCF92DF92FF920F931F93CF93DF9348
:100360006C01F62EEA01890180918C018F5F8093E8
:100370008C018DE090E00E940104FC0190935E02EC
:1003800080935D02D182C082F68281E087831486E9
:1003900020915F02309160028BE998E0821B930B01
:1003A00095838483C20FD31FD0936002C0935F02F2
:1003B0001387028713821282A0915B02B0915C02C4
:1003C00018968D919C911997918780871996FC9327
:1003D000EE931897DF91CF911F910F91FF90DF90CF
:1003E000CF900895E0918E01F0918F018485833044
:1003F00079F48085918590938F0180938E01E091AF
:100400008E01F0918F0182819381892BA9F41FC005
:1004100080859185009759F4E0915B02F0915C0230
:100420008085918590938F0180938E01E8CF909382
:100430008F0180938E01E3CF0084F185E02D8281CE
:100440009381892BC9F7F0938F01E0938E01089572
:100450000F920FB6F8940F921F922F923F924F92E5
:100460005F926F927F928F929F92AF92BF92CF9244
:10047000DF92EF92FF920F931F932F933F934F932F
:100480005F936F937F938F939F93AF93BF93CF931C
:10049000DF93EF93FF93A0918801B09189010DB68E
:1004A0000D920EB60D920E94F201E0918E01F09134
:1004B0008F01CF0104969093890180938801A091C8
:1004C0008801B0918901CD91CDBFDD91DEBF8781DB
:1004D000813059F47894E0918E01F0918F01178268
:1004E0000190F081E02D09952BC0A0918801B09179
:1004F0008901CD91CDBFDD91DEBFFF91EF91DF91FD
:10050000CF91BF91AF919F918F917F916F915F91AB
:100510004F913F912F911F910F91FF90EF90DF909E
:10052000CF90BF90AF909F908F907F906F905F9093
:100530004F903F902F901F900F900FBE0F901895E7
:10054000FC01F8948081918101979183808380815F
:10055000918199235CF4A0918E01B0918F01139643
:10056000FC93EE93129778940E9428027894089551
:10057000DC01F8948D919C911197019611969C93B2
:100580008E938D919C9111979923B4F4E0915B0225
:10059000F0915C020084F185E02D82819381A8179F
:1005A000B90741F00084F185E02D82819381A8177D
:1005B000B907C1F7138212827894089510929101BD
:1005C0001092900180E991E090936502809364021B
:1005D00010926302109292010895F8940E947301A0
:1005E000E0915B02F0915C021186108683E08487C3
:1005F000F0938F01E0938E011092600210925F02DF
:1006000010928C010E94DE020895CF93DF93C09177
:100610006402D09165022881398124363105C4F401
:100620002091630230E0F901EE0FFF1FED56FE4FFF
:1006300091838083C901019664E670E00E94D9032A
:1006400080936302CE010E94B80280E090E002C075
:100650008FEF9FEFDF91CF91089580916402909189
:1006600065020E94A0028091920190E0FC01EE0FD1
:10067000FF1FED56FE4F20813181019664E670E048
:100680000E94D90380939201C9010895CF93C82F86
:100690008A3019F48DE00E944603E0ECF0E080819E
:1006A00085FFFDCFC093C60080E090E0CF91089514
:1006B000E0ECF0E080818823ECF78091C60090E0C8
:1006C00008951092C50087E68093C40088E1809366
:1006D000C10086E08093C2000895CF93DF93CCE6FB
:1006E000D2E06A817B818BE190E00E9422056A81E1
:1006F0007B818BE590E00E9422056A817B8188E402
:1007000090E00E9422056A817B818BE190E00E944B
:1007100022056A817B818BE590E00E9422056A8137
:100720007B818AE490E00E942205DF91CF910895B9
:10073000CF93DF93CCE6D2E06A817B818BE190E0BE
:100740000E9422056A817B818BE590E00E94220550
:100750006A817B8180E390E00E9422056A817B812F
:100760008DE690E00E942205DF91CF91089580915F
:10077000C000882344F4A6ECB0E0E0ECF0E08C91FB
:1007800080818823E4F30895ECE6F2E086E091E0CE
:1007900091838083938382830E9461030E949803E4
:1007A0000E946D030E9498030E946D030E94B7038C
:1007B000089597FB072E16F4009407D077FD09D013
:1007C0000E94ED0307FC05D03EF4909581959F4F64
:1007D0000895709561957F4F0895AA1BBB1B51E149
:1007E00007C0AA1FBB1FA617B70710F0A61BB70BA1
:1007F000881F991F5A95A9F780959095BC01CD0146
:1008000008950F931F93CF93DF938230910510F4D7
:1008100082E090E0E0916A02F0916B0220E030E02B
:10082000A0E0B0E0309719F140815181028113813D
:1008300048175907C8F08417950769F4109731F0E5
:1008400012960C93129713961C9327C000936A027A
:1008500010936B0222C02115310519F0421753077E
:1008600018F49A01BD01EF01DF01F801DBCF21157A
:100870003105F9F0281B390B2430310580F48A81C9
:100880009B816115710521F0FB019383828304C074
:1008900090936B0280936A02FE01329644C0FE017F
:1008A000E20FF31F819391932250310939832883FA
:1008B0003AC02091680230916902232B41F42091C3
:1008C0000201309103013093690220936802209164
:1008D0000001309101012115310541F42DB73EB7DA
:1008E0004091040150910501241B350BE0916802F1
:1008F000F0916902E217F307A0F42E1B3F0B2817B3
:10090000390778F0AC014E5F5F4F2417350748F088
:100910004E0F5F1F50936902409368028193919339
:1009200002C0E0E0F0E0CF01DF91CF911F910F9185
:100930000895CF93DF93009709F481C0FC013297AB
:1009400013821282A0916A02B0916B02109781F417
:1009500020813181820F931F2091680230916902BA
:100960002817390751F5F0936902E093680267C0D0
:10097000ED0120E030E0CE17DF0740F44A815B81D3
:100980009E0141155105F1F0EA01F5CFD383C283F1
:1009900040815181840F951FC817D90759F4888168
:1009A0009981840F951F0296918380838A819B8110
:1009B000938382832115310529F4F0936B02E09330
:1009C0006A023DC0E901FB83EA8349915991C40F52
:1009D000D51FEC17FD0761F480819181840F951F6D
:1009E0000296E90199838883828193819B838A831C
:1009F000E0E0F0E012968D919C911397009719F02A
:100A0000FD01DC01F7CF8D919C9111979D012E5F27
:100A10003F4F820F931F209168023091690228177F
:100A2000390769F4309729F410926B0210926A0228
:100A300002C013821282B0936902A0936802DF9110
:100A4000CF9108950F931F93CF93DF93FB012381E1
:100A500021FD03C08FEF9FEF2CC022FF16C04681FF
:100A60005781248135814217530744F4A081B18115
:100A70009D012F5F3F4F318320838C9326813781E7
:100A80002F5F3F4F3783268314C08B01EC01FB019E
:100A90000084F185E02D0995892BE1F6D8011696A1
:100AA0008D919C911797019617969C938E9316970C
:100AB000CE01DF91CF911F910F910895A0E0B0E09A
:100AC000E4E6F5E00C940908AE014B5F5F4FFA01D4
:100AD00061917191AF0180916E0290916F020E94BD
:100AE000A405E2E00C9425080F931F93CF93DF93A6
:100AF000E0916E02F0916F02238121FF1BC08C01F7
:100B0000D0E0C0E0F80181918F0160916E02709198
:100B10006F02DB011896ED91FC911997882331F053
:100B20000995892B79F3DFEFCFEFECCF8AE00995B8
:100B3000892B19F08FEF9FEF02C08D2F9C2FDF9133
:100B4000CF911F910F910895ABE0B0E0EAEAF5E094
:100B50000C94F9076C017B018A01FC011782168253
:100B6000838181FFCCC1CE0101963C01F6019381C6
:100B7000F70193FD859193FF81917F01882309F40B
:100B8000BAC1853239F493FD859193FF81917F013C
:100B9000853229F4B60190E00E942205E7CF912C1E
:100BA000212C312CFFE1F315D8F08B3279F038F499
:100BB000803279F08332A1F4232D20611DC08D3263
:100BC00061F0803369F4232D216016C0832D82608B
:100BD000382EE32DE4603E2E2AC0F32DF8601DC0B0
:100BE00037FC2DC020ED280F2A3040F08E32B9F4AA
:100BF00036FC81C1232D2064322E19C036FE06C07A
:100C00008AE0989E200D1124922E11C0EAE02E9EBB
:100C1000200D1124222EF32DF0623F2E08C08C36B9
:100C200021F4832D8068382E02C0883641F4F70104
:100C300093FD859193FF81917F018111B3CF982F0F
:100C40009F7D9554933028F40C5F1F4F9FE3998349
:100C50000DC0833631F0833771F0833509F059C008
:100C600021C0F801808189830E5F1F4F88248394FF
:100C7000912C530113C02801F2E04F0E511CF801D2
:100C8000A080B18036FE03C0692D70E002C06FEF16
:100C90007FEFC5010E9490074C018201F32DFF7781
:100CA0003F2E16C0280122E0420E511CF801A08000
:100CB000B18036FE03C0692D70E002C06FEF7FEF98
:100CC000C5010E9485074C01F32DF0683F2E82017B
:100CD00033FC1BC0822D90E088169906B0F4B60153
:100CE00080E290E00E9422052A94F4CFF50137FCBF
:100CF000859137FE81915F01B60190E00E94220547
:100D000021102A9421E0821A91088114910471F72C
:100D1000E8C0843611F0893641F5F80137FE07C086
:100D200060817181828193810C5F1F4F08C0608157
:100D30007181072E000C880B990B0E5F1F4FF32D4E
:100D4000FF763F2E97FF09C090958095709561952D
:100D50007F4F8F4F9F4FF0683F2E2AE030E0A30176
:100D60000E949B07882E861845C0853731F4232DB5
:100D70002F7EB22E2AE030E025C0932D997FB92E28
:100D80008F36C1F018F4883579F0B5C0803719F086
:100D9000883721F0B0C0E92FE061BE2EB4FE0DC04F
:100DA000FB2DF460BF2E09C034FE0AC0292F266037
:100DB000B22E06C028E030E005C020E130E002C0DD
:100DC00020E132E0F801B7FE07C0608171818281C5
:100DD00093810C5F1F4F06C06081718180E090E0BD
:100DE0000E5F1F4FA3010E949B07882E8618FB2DC4
:100DF000FF773F2E36FE0DC0232D2E7FA22E8914A5
:100E000058F434FE0BC032FC09C0832D8E7EA82E10
:100E100005C0B82CA32C03C0B82C01C0B92CA4FE6B
:100E20000FC0FE01E80DF11D8081803321F49A2D61
:100E3000997EA92E09C0A2FE06C0B394B39404C043
:100E40008A2D867809F0B394A3FC11C0A0FE06C0D9
:100E5000B21488F4280C922C9B180EC0B21460F4C3
:100E6000B60180E290E00E942205B394F7CFB2145D
:100E700018F42B1802C0982C212CA4FE10C0B60127
:100E800080E390E00E942205A2FE17C0A1FC03C0EF
:100E900088E790E002C088E590E0B6010CC08A2D9A
:100EA000867859F0A1FE02C08BE201C080E2A7FC67
:100EB0008DE2B60190E00E942205891438F4B60153
:100EC00080E390E00E9422059A94F7CF8A94F30180
:100ED000E80DF11D8081B60190E00E94220581108D
:100EE000F5CF222009F442CEB60180E290E00E94C4
:100EF00022052A94F6CFF6018681978102C08FEFF2
:100F00009FEF2B96E2E10C941508FC0105906150CF
:100F100070400110D8F7809590958E0F9F1F08950F
:100F2000FC016150704001900110D8F780959095B8
:100F30008E0F9F1F0895FA01AA27283051F1203102
:100F400081F1E8946F936E7F6E5F7F4F8F4F9F4F5D
:100F5000AF4FB1E03ED0B4E03CD0670F781F891F9F
:100F60009A1FA11D680F791F8A1F911DA11D6A0F6D
:100F7000711D811D911DA11D20D009F468943F9120
:100F80002AE0269F11243019305D3193DEF6CF011F
:100F90000895462F4770405D4193B3E00FD0C9F7E5
:100FA000F6CF462F4F70405D4A3318F0495D31FD52
:100FB0004052419302D0A9F7EACFB4E0A6959795A5
:100FC000879577956795BA95C9F70097610571057B
:100FD00008959B01AC010A2E0694579547953795C5
:100FE0002795BA95C9F7620F731F841F951FA01D1F
:100FF00008952F923F924F925F926F927F928F92BD
:101000009F92AF92BF92CF92DF92EF92FF920F9397
:101010001F93CF93DF93CDB7DEB7CA1BDB0B0FB6A1
:10102000F894DEBF0FBECDBF09942A88398848885E
:101030005F846E847D848C849B84AA84B984C884F4
:10104000DF80EE80FD800C811B81AA81B981CE0FEB
:10105000D11D0FB6F894DEBF0FBECDBFED010895D0
:04106000F894FFCF32
:10106400000072022000000000030000000046039C
:10107400580300000A4F6E5461736B000A72546186
:10108400736B000A4F66667461736B202564000AF3
:10109400715461736B202564006F6E5461736B002F
:1010A400715461736B006F66665461736B005374A3
:1010B400617274696E67207363686564756C6572C8
:1010C4002077697468202564207461736B730A0047
:1010D4005363686564756C65722072756E6E696EB3
:0210E4006700A3
:00000001FF
