:100000000C9434000C943E000C943E000C943E0082
:100010000C943E000C943E000C943E000C943E0068
:100020000C943E000C943E000C943E000C943E0058
:100030000C943E000C943E000C943E000C943E0048
:100040000C943E000C943E000C943E000C943E0038
:100050000C943E000C943E000C943E000C943E0028
:100060000C943E000C943E0011241FBECFEFD8E04C
:10007000DEBFCDBF0E9440000C94FC000C94000039
:1000800061E070E08DE090E00E94650061E070E06A
:100090008DE090E00E94B0002FEF89E698E12150BA
:1000A00080409040E1F700C0000060E070E08DE02B
:1000B00090E00E94B0002FEF89E698E12150804047
:1000C0009040E1F700C00000E1CF8830910500F5D5
:1000D0006130710569F44AB121E030E0B90102C034
:1000E000660F771F8A95E2F7CB01842B8AB90895B2
:1000F000672BA9F54AB121E030E0B90102C0660FD3
:10010000771F8A95E2F7CB01809584238AB90895F9
:100110009C01285031092630310508F56130710500
:1001200071F444B1C90121E030E0B90102C0660FA9
:10013000771F8A95E2F7CB01842B84B90895672B4A
:1001400071F444B1089721E030E0B90102C0660FB4
:10015000771F8A95E2F7CB018095842384B90895AF
:100160008830910520F5161617065CF44BB121E096
:1001700030E0082E02C0220F331F0A94E2F7242B2E
:100180002BB96115710599F44BB121E030E0082ECF
:1001900002C0220F331F0A94E2F7209524232BB9C3
:1001A0009C012850310926303105B8F008959C0192
:1001B0002850310926303105F0F4161617065CF484
:1001C00045B1F90121E030E002C0220F331FEA956A
:1001D000E2F7242B25B9672B71F445B1089721E08C
:1001E00030E0B90102C0660F771F8A95E2F7CB01B4
:0C01F0008095842385B90895F894FFCF12
:00000001FF
