:100000000C9434000C9451000C9451000C94510049
:100010000C9451000C9451000C9451000C9451001C
:100020000C9451000C9451000C9451000C94AB01B1
:100030000C9451000C9451000C9451000C945100FC
:100040000C9451000C9451000C9451000C945100EC
:100050000C9451000C9451000C9451000C945100DC
:100060000C9451000C94510011241FBECFEFD8E026
:10007000DEBFCDBF11E0A0E0B1E0EAE8F8E002C0E9
:1000800005900D92A633B107D9F721E0A6E3B1E0C0
:1000900001C01D92AC34B207E1F70E9469000C94D4
:1000A00043040C94000084E191E00E94130461E099
:1000B00070E08DE090E00E94D100F5CF8BE191E0FF
:1000C0000E94130460E070E08DE090E00E94D10097
:1000D000F5CF0E94A10261E070E08DE090E00E9407
:1000E00086000E942E0142E350E061E083E590E04B
:1000F0000E944E0142E350E062E08EE590E00E94F3
:100100004E010E94420180E090E008958830910500
:1001100000F56130710569F44AB121E030E0B901C0
:1001200002C0660F771F8A95E2F7CB01842B8AB94C
:100130000895672BA9F54AB121E030E0B90102C06A
:10014000660F771F8A95E2F7CB01809584238AB9E1
:1001500008959C01285031092630310508F5613099
:10016000710571F444B1C90121E030E0B90102C068
:10017000660F771F8A95E2F7CB01842B84B9089527
:10018000672B71F444B1089721E030E0B90102C057
:10019000660F771F8A95E2F7CB018095842384B997
:1001A00008958830910520F5161617065CF44BB1BA
:1001B00021E030E0082E02C0220F331F0A94E2F73C
:1001C000242B2BB96115710599F44BB121E030E076
:1001D000082E02C0220F331F0A94E2F72095242331
:1001E0002BB99C012850310926303105B8F008950B
:1001F0009C012850310926303105F0F416161706F7
:100200005CF445B1F90121E030E002C0220F331F58
:10021000EA95E2F7242B25B9672B71F445B10897CD
:1002200021E030E0B90102C0660F771F8A95E2F73E
:10023000CB018095842385B90895E1E8F0E08081C1
:100240008C608083EFE6F0E08081826080838CE3C5
:1002500090EF90938900809388000895F8940E940D
:100260001D01E0913A01F0913B011782168283E073
:100270008287F0933901E093380110923F01109288
:100280003E01089580E491E0909337018093360118
:10029000789483E291E00E941304FBCFEF92FF92E7
:1002A0001F93CF93DF937C01162FEA018BE090E040
:1002B0000E94B602FC0190933D0180933C01F182C3
:1002C000E082148381E08583128620913E01309183
:1002D0003F018BE998E0821B930B93838283C20FCB
:1002E000D31FD0933F01C0933E01A0913A01B0913A
:1002F0003B0116968D919C9117979783868317964D
:10030000FC93EE931697DF91CF911F91FF90EF90A2
:100310000895E0913801F09139018285833039F4F4
:1003200086819781909339018093380113C086812B
:100330009781009759F4E0913A01F0913B01868151
:100340009781909339018093380104C090933901CB
:100350008093380108950F920FB6F8940F921F9270
:100360002F923F924F925F926F927F928F929F92C5
:10037000AF92BF92CF92DF92EF92FF920F931F93B3
:100380002F933F934F935F936F937F938F939F939D
:10039000AF93BF93CF93DF93EF93FF93A091360179
:1003A000B09137010DB60D920EB60D920E948901E3
:1003B000E0913801F0913901CF0102969093370115
:1003C00080933601A0913601B0913701CD91CDBF18
:1003D000DD91DEBF8581813059F47894E091380158
:1003E000F091390115820190F081E02D09952BC023
:1003F000A0913601B0913701CD91CDBFDD91DEBF27
:10040000FF91EF91DF91CF91BF91AF919F918F912C
:100410007F916F915F914F913F912F911F910F911C
:10042000FF90EF90DF90CF90BF90AF909F908F9014
:100430007F906F905F904F903F902F901F900F9004
:100440000FBE0F901895CF93C82F8A3019F48DE006
:100450000E942302E0ECF0E0808185FFFDCFC09395
:10046000C60080E090E0CF910895E0ECF0E080815C
:100470008823ECF78091C60090E008951092C500A3
:1004800089E18093C40088E18093C10086E0809375
:10049000C2000895CF93DF93C6E4D1E06A817B81E7
:1004A0008BE190E00E94D7036A817B818BE590E02D
:1004B0000E94D7036A817B8188E490E00E94D70381
:1004C0006A817B818BE190E00E94D7036A817B8106
:1004D0008BE590E00E94D7036A817B818AE490E0FB
:1004E0000E94D703DF91CF910895CF93DF93C6E4A5
:1004F000D1E06A817B818BE190E00E94D7036A8121
:100500007B818BE590E00E94D7036A817B8180E349
:1005100090E00E94D7036A817B818DE690E00E9483
:10052000D703DF91CF9108958091C000882344F4D0
:10053000A6ECB0E0E0ECF0E08C9180818823E4F35D
:100540000895E6E4F1E086E091E09183808393836F
:1005500082830E943E020E9475020E944A020E940B
:1005600075020E944A020E94940208950F931F93FD
:10057000CF93DF938230910510F482E090E0E09118
:100580004401F091450120E030E0A0E0B0E0309778
:1005900019F1408151810281138148175907C8F030
:1005A0008417950769F4109731F012960C931297FF
:1005B00013961C9327C0009344011093450122C059
:1005C0002115310519F04217530718F49A01BD019E
:1005D000EF01DF01F801DBCF21153105F9F0281B10
:1005E000390B2430310580F48A819B8161157105B6
:1005F00021F0FB019383828304C090934501809393
:100600004401FE01329644C0FE01E20FF31F8193C4
:10061000919322503109398328833AC020914201B5
:1006200030914301232B41F42091020130910301C9
:100630003093430120934201209100013091010148
:100640002115310541F42DB73EB740910401509179
:100650000501241B350BE0914201F0914301E217A3
:10066000F307A0F42E1B3F0B2817390778F0AC01D5
:100670004E5F5F4F2417350748F04E0F5F1F5093B2
:100680004301409342018193919302C0E0E0F0E086
:10069000CF01DF91CF911F910F910895CF93DF93F9
:1006A000009709F481C0FC01329713821282A09155
:1006B0004401B0914501109781F420813181820F6E
:1006C000931F20914201309143012817390751F5BA
:1006D000F0934301E093420167C0ED0120E030E078
:1006E000CE17DF0740F44A815B819E014115510519
:1006F000F1F0EA01F5CFD383C28340815181840FA9
:10070000951FC817D90759F488819981840F951FBF
:100710000296918380838A819B81938382832115B2
:10072000310529F4F0934501E09344013DC0E9010E
:10073000FB83EA8349915991C40FD51FEC17FD073C
:1007400061F480819181840F951F0296E90199835C
:100750008883828193819B838A83E0E0F0E0129614
:100760008D919C911397009719F0FD01DC01F7CF53
:100770008D919C9111979D012E5F3F4F820F931F8A
:1007800020914201309143012817390769F43097CD
:1007900029F4109245011092440102C01382128282
:1007A000B0934301A0934201DF91CF9108950F933D
:1007B0001F93CF93DF93FB01238121FD03C08FEFB4
:1007C0009FEF2CC022FF16C04681578124813581BE
:1007D0004217530744F4A081B1819D012F5F3F4F21
:1007E000318320838C93268137812F5F3F4F37835E
:1007F000268314C08B01EC01FB010084F185E02D00
:100800000995892BE1F6D80116968D919C91179741
:10081000019617969C938E931697CE01DF91CF91F8
:100820001F910F9108950F931F93CF93DF93E09142
:100830004801F0914901238121FF1BC08C01D0E0C8
:10084000C0E0F80181918F016091480170914901E8
:10085000DB011896ED91FC911997882331F00995E9
:10086000892B79F3DFEFCFEFECCF8AE00995892B65
:1008700019F08FEF9FEF02C08D2F9C2FDF91CF914A
:0A0880001F910F910895F894FFCF27
:10088A0000004C01200000000003000000002302C9
:10089A00350200006F6E5461736B006F66665461B7
:1008AA00736B005363686564756C65722072756E4C
:0608BA006E696E6700008C
:00000001FF
