:100000000C9434000C9476000C9451000C94510024
:100010000C9451000C9451000C9451000C9451001C
:100020000C9451000C9451000C9451000C94D60087
:100030000C9451000C9451000C9451000C945100FC
:100040000C9451000C9451000C9451000C945100EC
:100050000C9451000C9451000C9451000C945100DC
:100060000C9451000C94510011241FBECFEFD8E026
:10007000DEBFCDBF11E0A0E0B1E0E4E3FDE002C0EF
:1000800005900D92A636B107D9F721E0A6E6B1E0BA
:1000900001C01D92AE37B207E1F70E949E000C949A
:1000A00098060C94000084E191E00E94DC03FBCFF1
:1000B0008FE191E00E94DC03FBCF8AE291E00E9495
:1000C000DC03FBCFC5E3D1E0DF93CF930E94C603EF
:1000D0000F900F90F9CF52985A9AE9E6F0E080819C
:1000E0008083808182608083E89A08951F920F92B6
:1000F0000FB60F9211242F933F934F935F936F93FB
:100100007F938F939F93AF93BF93EF93FF93F89455
:1001100080E491E00E94DC037894FF91EF91BF911D
:10012000AF919F918F917F916F915F914F913F918F
:100130002F910F900FBE0F901F9018950E945402A0
:100140000E946B000E947B0148EC50E061E083E577
:1001500090E00E949B0148EC50E062E088E590E06E
:100160000E949B0148EC50E063E08DE590E00E9426
:100170009B0142E350E064E082E690E00E949B0134
:100180000E948F0180E090E00895E1E8F0E0808136
:100190008C608083EFE6F0E08081826080838CE376
:1001A00090EF909389008093880008950F920FB686
:1001B000F8940F921F922F923F924F925F926F92FC
:1001C0007F928F929F92AF92BF92CF92DF92EF92E7
:1001D000FF920F931F932F933F934F935F936F93D0
:1001E0007F938F939F93AF93BF93CF93DF93EF93BF
:1001F000FF93A0916601B09167010DB60D920EB606
:100200000D9282E791E09093670180936601A0913F
:100210006601B0916701CD91CDBFDD91DEBFE09168
:100220006801F09169018285833039F48681978174
:10023000909369018093680113C08681978100972C
:1002400059F4E0916A01F0916B0186819781909356
:1002500069018093680104C09093690180936801EB
:10026000E0916801F0916901CF01029690936701D6
:1002700080936601A0916601B0916701CD91CDBFD9
:10028000DD91DEBF8581813059F47894E091680179
:10029000F091690115820190F081E02D09952BC044
:1002A000A0916601B0916701CD91CDBFDD91DEBF18
:1002B000FF91EF91DF91CF91BF91AF919F918F917E
:1002C0007F916F915F914F913F912F911F910F916E
:1002D000FF90EF90DF90CF90BF90AF909F908F9066
:1002E0007F906F905F904F903F902F901F900F9056
:1002F0000FBE0F901895F8940E94C500E0916A0116
:10030000F0916B011782168283E08287F093690176
:10031000E09368011092710110927001089582E7D4
:1003200091E09093670180936601789484E591E071
:100330000E94DC03FBCFEF92FF921F93CF93DF93DA
:100340007C01162FEA018BE090E00E946902FC011B
:1003500090936D0180936C01F182E082148381E0BF
:100360008583128620917001309171018BE998E0AC
:10037000821B930B93838283C20FD31FD09371018F
:10038000C0937001A0916A01B0916B0116968D9196
:100390009C911797978386831796FC93EE931697F5
:1003A000DF91CF911F91FF90EF900895CF93C82FC9
:1003B0008A3019F48DE00E94D601E0ECF0E08081F3
:1003C00085FFFDCFC093C60080E090E0CF910895F7
:1003D000E0ECF0E080818823ECF78091C60090E0AB
:1003E00008951092C50089E18093C40088E180934C
:1003F000C10086E08093C2000895CF93DF93C8E7E1
:10040000D1E06A817B818BE190E00E948A036A815E
:100410007B818BE590E00E948A036A817B8188E47E
:1004200090E00E948A036A817B818BE190E00E94C8
:100430008A036A817B818BE590E00E948A036A814E
:100440007B818AE490E00E948A03DF91CF91089536
:10045000CF93DF93C8E7D1E06A817B818BE190E0A5
:100460000E948A036A817B818BE590E00E948A0367
:100470006A817B8180E390E00E948A036A817B81AC
:100480008DE690E00E948A03DF91CF9108958091DC
:10049000C000882344F4A6ECB0E0E0ECF0E08C91DE
:1004A00080818823E4F30895E8E7F1E086E091E0B5
:1004B00091838083938382830E94F1010E942802AA
:1004C0000E94FD010E9428020E94FD010E94470235
:1004D00008950F931F93CF93DF938230910510F40B
:1004E00082E090E0E0917601F091770120E030E049
:1004F000A0E0B0E0309719F1408151810281138171
:1005000048175907C8F08417950769F4109731F018
:1005100012960C93129713961C9327C000937601A2
:100520001093770122C02115310519F042175307A6
:1005300018F49A01BD01EF01DF01F801DBCF2115AD
:100540003105F9F0281B390B2430310580F48A81FC
:100550009B816115710521F0FB019383828304C0A7
:100560009093770180937601FE01329644C0FE019C
:10057000E20FF31F8193919322503109398328832D
:100580003AC02091740130917501232B41F42091E0
:100590000201309103013093750120937401209181
:1005A0000001309101012115310541F42DB73EB70D
:1005B0004091040150910501241B350BE091740119
:1005C000F0917501E217F307A0F42E1B3F0B2817DB
:1005D000390778F0AC014E5F5F4F2417350748F0BC
:1005E0004E0F5F1F50937501409374018193919357
:1005F00002C0E0E0F0E0CF01DF91CF911F910F91B9
:100600000895CF93DF93009709F481C0FC013297DE
:1006100013821282A0917601B0917701109781F434
:1006200020813181820F931F2091740130917501D7
:100630002817390751F5F0937501E093740167C0ED
:10064000ED0120E030E0CE17DF0740F44A815B8106
:100650009E0141155105F1F0EA01F5CFD383C28324
:1006600040815181840F951FC817D90759F488819B
:100670009981840F951F0296918380838A819B8143
:10068000938382832115310529F4F0937701E09358
:1006900076013DC0E901FB83EA8349915991C40F7A
:1006A000D51FEC17FD0761F480819181840F951FA0
:1006B0000296E90199838883828193819B838A834F
:1006C000E0E0F0E012968D919C911397009719F05D
:1006D000FD01DC01F7CF8D919C9111979D012E5F5B
:1006E0003F4F820F931F209174013091750128179D
:1006F000390769F4309729F4109277011092760146
:1007000002C013821282B0937501A0937401DF912D
:10071000CF9108950F931F93CF93DF93FB01238114
:1007200021FD03C08FEF9FEF2CC022FF16C0468132
:100730005781248135814217530744F4A081B18148
:100740009D012F5F3F4F318320838C93268137811A
:100750002F5F3F4F3783268314C08B01EC01FB01D1
:100760000084F185E02D0995892BE1F6D8011696D4
:100770008D919C911797019617969C938E9316973F
:10078000CE01DF91CF911F910F910895A0E0B0E0CD
:10079000ECECF3E00C947106AE014B5F5F4FFA0195
:1007A00061917191AF0180917A0190917B010E94DA
:1007B0000C04E2E00C948D060F931F93CF93DF930C
:1007C000E0917A01F0917B01238121FF1BC08C0114
:1007D000D0E0C0E0F80181918F0160917A017091C1
:1007E0007B01DB011896ED91FC911997882331F07C
:1007F0000995892B79F3DFEFCFEFECCF8AE00995EC
:10080000892B19F08FEF9FEF02C08D2F9C2FDF9166
:10081000CF911F910F910895ABE0B0E0E2E1F4E0D9
:100820000C9461066C017B018A01FC01178216821F
:10083000838181FFCCC1CE0101963C01F6019381F9
:10084000F70193FD859193FF81917F01882309F43E
:10085000BAC1853239F493FD859193FF81917F016F
:10086000853229F4B60190E00E948A03E7CF912CEB
:10087000212C312CFFE1F315D8F08B3279F038F4CC
:10088000803279F08332A1F4232D20611DC08D3296
:1008900061F0803369F4232D216016C0832D8260BE
:1008A000382EE32DE4603E2E2AC0F32DF8601DC0E3
:1008B00037FC2DC020ED280F2A3040F08E32B9F4DD
:1008C00036FC81C1232D2064322E19C036FE06C0AD
:1008D0008AE0989E200D1124922E11C0EAE02E9EEF
:1008E000200D1124222EF32DF0623F2E08C08C36ED
:1008F00021F4832D8068382E02C0883641F4F70138
:1009000093FD859193FF81917F018111B3CF982F42
:100910009F7D9554933028F40C5F1F4F9FE399837C
:100920000DC0833631F0833771F0833509F059C03B
:1009300021C0F801808189830E5F1F4F8824839432
:10094000912C530113C02801F2E04F0E511CF80105
:10095000A080B18036FE03C0692D70E002C06FEF49
:100960007FEFC5010E94F8054C018201F32DFF774E
:100970003F2E16C0280122E0420E511CF801A08033
:10098000B18036FE03C0692D70E002C06FEF7FEFCB
:10099000C5010E94ED054C01F32DF0683F2E820148
:1009A00033FC1BC0822D90E088169906B0F4B60186
:1009B00080E290E00E948A032A94F4CFF50137FC8C
:1009C000859137FE81915F01B60190E00E948A0314
:1009D00021102A9421E0821A91088114910471F760
:1009E000E8C0843611F0893641F5F80137FE07C0BA
:1009F00060817181828193810C5F1F4F08C060818B
:100A00007181072E000C880B990B0E5F1F4FF32D81
:100A1000FF763F2E97FF09C0909580957095619560
:100A20007F4F8F4F9F4FF0683F2E2AE030E0A301A9
:100A30000E940306882E861845C0853731F4232D81
:100A40002F7EB22E2AE030E025C0932D997FB92E5B
:100A50008F36C1F018F4883579F0B5C0803719F0B9
:100A6000883721F0B0C0E92FE061BE2EB4FE0DC082
:100A7000FB2DF460BF2E09C034FE0AC0292F26606A
:100A8000B22E06C028E030E005C020E130E002C010
:100A900020E132E0F801B7FE07C0608171818281F8
:100AA00093810C5F1F4F06C06081718180E090E0F0
:100AB0000E5F1F4FA3010E940306882E8618FB2D90
:100AC000FF773F2E36FE0DC0232D2E7FA22E8914D8
:100AD00058F434FE0BC032FC09C0832D8E7EA82E44
:100AE00005C0B82CA32C03C0B82C01C0B92CA4FE9F
:100AF0000FC0FE01E80DF11D8081803321F49A2D95
:100B0000997EA92E09C0A2FE06C0B394B39404C076
:100B10008A2D867809F0B394A3FC11C0A0FE06C00C
:100B2000B21488F4280C922C9B180EC0B21460F4F6
:100B3000B60180E290E00E948A03B394F7CFB2142A
:100B400018F42B1802C0982C212CA4FE10C0B6015A
:100B500080E390E00E948A03A2FE17C0A1FC03C0BC
:100B600088E790E002C088E590E0B6010CC08A2DCD
:100B7000867859F0A1FE02C08BE201C080E2A7FC9A
:100B80008DE2B60190E00E948A03891438F4B60120
:100B900080E390E00E948A039A94F7CF8A94F3014D
:100BA000E80DF11D8081B60190E00E948A0381105A
:100BB000F5CF222009F442CEB60180E290E00E94F7
:100BC0008A032A94F6CFF6018681978102C08FEFBF
:100BD0009FEF2B96E2E10C947D06FC01059061509D
:100BE00070400110D8F7809590958E0F9F1F089543
:100BF000FC016150704001900110D8F780959095EC
:100C00008E0F9F1F0895FA01AA27283051F1203135
:100C100081F1E8946F936E7F6E5F7F4F8F4F9F4F90
:100C2000AF4FB1E03ED0B4E03CD0670F781F891FD2
:100C30009A1FA11D680F791F8A1F911DA11D6A0FA0
:100C4000711D811D911DA11D20D009F468943F9153
:100C50002AE0269F11243019305D3193DEF6CF0152
:100C60000895462F4770405D4193B3E00FD0C9F718
:100C7000F6CF462F4F70405D4A3318F0495D31FD85
:100C80004052419302D0A9F7EACFB4E0A6959795D8
:100C9000879577956795BA95C9F7009761057105AE
:100CA00008959B01AC010A2E0694579547953795F8
:100CB0002795BA95C9F7620F731F841F951FA01D52
:100CC00008952F923F924F925F926F927F928F92F0
:100CD0009F92AF92BF92CF92DF92EF92FF920F93CB
:100CE0001F93CF93DF93CDB7DEB7CA1BDB0B0FB6D5
:100CF000F894DEBF0FBECDBF09942A883988488892
:100D00005F846E847D848C849B84AA84B984C88427
:100D1000DF80EE80FD800C811B81AA81B981CE0F1E
:100D2000D11D0FB6F894DEBF0FBECDBFED01089503
:040D3000F894FFCF65
:100D340000007E0120000000000300000000D60136
:100D4400E801000046756E6374696F6E20310046D9
:100D5400756E6374696F6E20320046756E637469D4
:100D64006F6E20330046756E6374696F6E203400B5
:100D7400496E746572727570742074726967676500
:100D8400726564005363686564756C65722073747E
:060D940061727465640049
:00000001FF
