:100000000C9434000C9451000C9451000C94510049
:100010000C9451000C9451000C9451000C9451001C
:100020000C9451000C9451000C9451000C948D02CE
:100030000C9451000C9451000C9451000C945100FC
:100040000C9451000C9451000C9451000C945100EC
:100050000C9451000C9451000C9451000C945100DC
:100060000C9451000C94510011241FBECFEFD8E026
:10007000DEBFCDBF11E0A0E0B1E0E2E9FFE002C0E9
:1000800005900D92A236B107D9F721E0A2E6B1E0C2
:1000900001C01D92A038B207E1F70E9473000C94D2
:1000A000C7070C94000084E191E00E940B05FBCF90
:1000B0008AE191E00E940B05FBCF80E291E00E9473
:1000C0000B0561E070E08DE090E00E94F200F5CF5A
:1000D00087E291E00E940B0560E070E08DE090E027
:1000E0000E94F200F5CF0E94830361E070E08DE092
:1000F00090E00E94A7000E94E50120E231E042E387
:1001000050E064E18DE590E00E94240224E131E0BA
:1001100042E350E061E083E590E00E9424022AE19E
:1001200031E042E350E06CE088E590E00E94240278
:1001300027E231E042E350E062E088E690E00E948E
:10014000240282E50E94FB0180E090E0089588305F
:10015000910500F56130710569F44AB121E030E0A4
:10016000B90102C0660F771F8A95E2F7CB01842B95
:100170008AB90895672BA9F54AB121E030E0B901A9
:1001800002C0660F771F8A95E2F7CB018095842322
:100190008AB908959C01285031092630310508F5A7
:1001A0006130710571F444B1C90121E030E0B90159
:1001B00002C0660F771F8A95E2F7CB01842B84B9C2
:1001C0000895672B71F444B1089721E030E0B9013C
:1001D00002C0660F771F8A95E2F7CB0180958423D2
:1001E00084B908958830910520F5161617065CF439
:1001F0004BB121E030E0082E02C0220F331F0A94D9
:10020000E2F7242B2BB96115710599F44BB121E06C
:1002100030E0082E02C0220F331F0A94E2F7209527
:1002200024232BB99C012850310926303105B8F020
:1002300008959C012850310926303105F0F4161636
:1002400017065CF445B1F90121E030E002C0220F4D
:10025000331FEA95E2F7242B25B9672B71F445B1DA
:10026000089721E030E0B90102C0660F771F8A9538
:10027000E2F7CB018095842385B90895CF93DF936E
:10028000DC01FB01C0916401D09165018D919C91CD
:10029000119799838883C0916401D0916501189664
:1002A0008D919C9119979987888715968C911597B0
:1002B0008D8314968C9114978C8312968D919C91BA
:1002C00013979B838A831A968C911A978A878081C9
:1002D000918111969C938E938085918519969C931C
:1002E0008E931897858115968C9315978481149613
:1002F0008C9314978281938113969C938E9312977B
:1003000082851A968C93A0916401B09165018D91BC
:100310009C9191838083A0916401B09165011896AE
:100320008D919C9119979187808715968C9115973F
:10033000858314968C911497848312968D919C9149
:100340001397938382831A968C918287DF91CF9142
:1003500008950F931F93CF93DF93E0916C01F09179
:100360006D010681178101151105C9F0F801C681DB
:10037000D7812097A1F09C81F8018481981720F4FF
:10038000BE01C8010E943E010E80DF81C02D209772
:1003900091F7F801068117810115110539F7DF91F1
:1003A000CF911F910F910895E1E8F0E080818C607A
:1003B0008083EFE6F0E08081826080838CE390EFC1
:1003C00090938900809388000895F8940E94D40146
:1003D000E0916C01F0916D011782168283E08287B3
:1003E000F0936B01E0936A01109271011092700119
:1003F00010926601089524E731E030936301209361
:10040000620180936901823511F40E94A9018091F3
:1004100066011F928F938FE291E09F938F930E94CA
:10042000F5042FE78AE196E0215080409040E1F703
:1004300000C0000078940F900F900F900F9080E50F
:1004400091E00E940B05FBCFCF92DF92FF920F93BA
:100450001F93CF93DF936C01F62EEA0189018091FF
:1004600066018F5F809366018BE090E00E949803A5
:10047000FC0190936F0180936E01D182C082F4825F
:1004800081E08583128620917001309171018BE9A2
:1004900098E0821B930B93838283C20FD31FD09368
:1004A0007101C093700111870087A0916C01B09118
:1004B0006D0116968D919C91179797838683179659
:1004C000FC93EE931697DF91CF911F910F91FF90C0
:1004D000DF90CF900895E0916A01F0916B018285E1
:1004E000833039F48681978190936B0180936A0100
:1004F00013C086819781009759F4E0916C01F091C7
:100500006D018681978190936B0180936A0104C08D
:1005100090936B0180936A0108950F920FB6F8943F
:100520000F921F922F923F924F925F926F927F9203
:100530008F929F92AF92BF92CF92DF92EF92FF92F3
:100540000F931F932F933F934F935F936F937F93DB
:100550008F939F93AF93BF93CF93DF93EF93FF93CB
:10056000A0916201B09163010DB60D920EB60D928D
:100570000E946B02E0916A01F0916B01CF0102963B
:100580009093630180936201A0916201B091630135
:10059000CD91CDBFDD91DEBF8581813059F4789456
:1005A000E0916A01F0916B0115820190F081E02DDC
:1005B00009952BC0A0916201B0916301CD91CDBF8F
:1005C000DD91DEBFFF91EF91DF91CF91BF91AF91B0
:1005D0009F918F917F916F915F914F913F912F915B
:1005E0001F910F91FF90EF90DF90CF90BF90AF9051
:1005F0009F908F907F906F905F904F903F902F9043
:100600001F900F900FBE0F901895CF93C82F8A3070
:1006100019F48DE00E940503E0ECF0E0808185FF95
:10062000FDCFC093C60080E090E0CF910895E0EC4C
:10063000F0E080818823ECF78091C60090E0089577
:100640001092C50087E68093C40088E18093C100C2
:1006500086E08093C2000895CF93DF93CAE7D1E08C
:100660006A817B818BE190E00E94B9046A817B8181
:100670008BE590E00E94B9046A817B8188E490E078
:100680000E94B9046A817B818BE190E00E94B904E9
:100690006A817B818BE590E00E94B9046A817B814D
:1006A0008AE490E00E94B904DF91CF910895CF933E
:1006B000DF93CAE7D1E06A817B818BE190E00E9401
:1006C000B9046A817B818BE590E00E94B9046A815C
:1006D0007B8180E390E00E94B9046A817B818DE692
:1006E00090E00E94B904DF91CF9108958091C000FD
:1006F000882344F4A6ECB0E0E0ECF0E08C9180813B
:100700008823E4F30895EAE7F1E086E091E091833D
:100710008083938382830E9420030E9457030E9458
:100720002C030E9457030E942C030E947603089515
:100730000F931F93CF93DF938230910510F482E0E3
:1007400090E0E0917801F091790120E030E0A0E0C4
:10075000B0E0309719F1408151810281138148172F
:100760005907C8F08417950769F4109731F012966D
:100770000C93129713961C9327C000937801109343
:10078000790122C02115310519F04217530718F4D9
:100790009A01BD01EF01DF01F801DBCF2115310521
:1007A000F9F0281B390B2430310580F48A819B81B4
:1007B0006115710521F0FB019383828304C090933E
:1007C000790180937801FE01329644C0FE01E20F68
:1007D000F31F8193919322503109398328833AC0C2
:1007E0002091760130917701232B41F42091020171
:1007F000309103013093770120937601209100011D
:10080000309101012115310541F42DB73EB74091DA
:10081000040150910501241B350BE0917601F09104
:100820007701E217F307A0F42E1B3F0B28173907B7
:1008300078F0AC014E5F5F4F2417350748F04E0F3C
:100840005F1F50937701409376018193919302C08B
:10085000E0E0F0E0CF01DF91CF911F910F9108957B
:10086000CF93DF93009709F481C0FC013297138284
:100870001282A0917801B0917901109781F42081C2
:100880003181820F931F20917601309177012817D3
:10089000390751F5F0937701E093760167C0ED01D8
:1008A00020E030E0CE17DF0740F44A815B819E01F3
:1008B00041155105F1F0EA01F5CFD383C2834081A0
:1008C0005181840F951FC817D90759F488819981E0
:1008D000840F951F0296918380838A819B819383E5
:1008E00082832115310529F4F0937901E093780191
:1008F0003DC0E901FB83EA8349915991C40FD51F9B
:10090000EC17FD0761F480819181840F951F029699
:10091000E90199838883828193819B838A83E0E0C4
:10092000F0E012968D919C911397009719F0FD01BC
:10093000DC01F7CF8D919C9111979D012E5F3F4F68
:10094000820F931F20917601309177012817390784
:1009500069F4309729F4109279011092780102C05D
:1009600013821282B0937701A0937601DF91CF9129
:1009700008950F931F93CF93DF93FB01238121FDF4
:1009800003C08FEF9FEF2CC022FF16C04681578116
:10099000248135814217530744F4A081B1819D0120
:1009A0002F5F3F4F318320838C93268137812F5FC8
:1009B0003F4F3783268314C08B01EC01FB01008479
:1009C000F185E02D0995892BE1F6D80116968D91D8
:1009D0009C911797019617969C938E931697CE012C
:1009E000DF91CF911F910F910895A0E0B0E0EBEF60
:1009F000F4E00C94A007AE014B5F5F4FFA016191E8
:100A00007191AF0180917C0190917D010E943B0525
:100A1000E2E00C94BC070F931F93CF93DF93E09118
:100A20007C01F0917D01238121FF1BC08C01D0E06E
:100A3000C0E0F80181918F0160917C0170917D018E
:100A4000DB011896ED91FC911997882331F00995F7
:100A5000892B79F3DFEFCFEFECCF8AE00995892B73
:100A600019F08FEF9FEF02C08D2F9C2FDF91CF9158
:100A70001F910F910895ABE0B0E0E1E4F5E00C9434
:100A800090076C017B018A01FC0117821682838129
:100A900081FFCCC1CE0101963C01F6019381F701A3
:100AA00093FD859193FF81917F01882309F4BAC159
:100AB000853239F493FD859193FF81917F018532D1
:100AC00029F4B60190E00E94B904E7CF912C212CC3
:100AD000312CFFE1F315D8F08B3279F038F4803205
:100AE00079F08332A1F4232D20611DC08D3261F095
:100AF000803369F4232D216016C0832D8260382E47
:100B0000E32DE4603E2E2AC0F32DF8601DC037FCB3
:100B10002DC020ED280F2A3040F08E32B9F436FC7B
:100B200081C1232D2064322E19C036FE06C08AE012
:100B3000989E200D1124922E11C0EAE02E9E200DC9
:100B40001124222EF32DF0623F2E08C08C3621F4A2
:100B5000832D8068382E02C0883641F4F70193FD5A
:100B6000859193FF81917F018111B3CF982F9F7D54
:100B70009554933028F40C5F1F4F9FE399830DC069
:100B8000833631F0833771F0833509F059C021C0C5
:100B9000F801808189830E5F1F4F88248394912CF4
:100BA000530113C02801F2E04F0E511CF801A08040
:100BB000B18036FE03C0692D70E002C06FEF7FEF99
:100BC000C5010E9427074C018201F32DFF773F2EBC
:100BD00016C0280122E0420E511CF801A080B1800D
:100BE00036FE03C0692D70E002C06FEF7FEFC501D4
:100BF0000E941C074C01F32DF0683F2E820133FC4C
:100C00001BC0822D90E088169906B0F4B60180E2F0
:100C100090E00E94B9042A94F4CFF50137FC859145
:100C200037FE81915F01B60190E00E94B904211066
:100C30002A9421E0821A91088114910471F7E8C086
:100C4000843611F0893641F5F80137FE07C060811E
:100C50007181828193810C5F1F4F08C06081718117
:100C6000072E000C880B990B0E5F1F4FF32DFF769C
:100C70003F2E97FF09C090958095709561957F4FA5
:100C80008F4F9F4FF0683F2E2AE030E0A3010E9473
:100C90003207882E861845C0853731F4232D2F7EE4
:100CA000B22E2AE030E025C0932D997FB92E8F36E1
:100CB000C1F018F4883579F0B5C0803719F088375D
:100CC00021F0B0C0E92FE061BE2EB4FE0DC0FB2DB7
:100CD000F460BF2E09C034FE0AC0292F2660B22E50
:100CE00006C028E030E005C020E130E002C020E18D
:100CF00032E0F801B7FE07C0608171818281938183
:100D00000C5F1F4F06C06081718180E090E00E5F34
:100D10001F4FA3010E943207882E8618FB2DFF77F4
:100D20003F2E36FE0DC0232D2E7FA22E891458F49F
:100D300034FE0BC032FC09C0832D8E7EA82E05C068
:100D4000B82CA32C03C0B82C01C0B92CA4FE0FC032
:100D5000FE01E80DF11D8081803321F49A2D997EEA
:100D6000A92E09C0A2FE06C0B394B39404C08A2D74
:100D7000867809F0B394A3FC11C0A0FE06C0B2149B
:100D800088F4280C922C9B180EC0B21460F4B601A3
:100D900080E290E00E94B904B394F7CFB21418F443
:100DA0002B1802C0982C212CA4FE10C0B60180E3A1
:100DB00090E00E94B904A2FE17C0A1FC03C088E71E
:100DC00090E002C088E590E0B6010CC08A2D8678DC
:100DD00059F0A1FE02C08BE201C080E2A7FC8DE2C7
:100DE000B60190E00E94B904891438F4B60180E39A
:100DF00090E00E94B9049A94F7CF8A94F301E80D29
:100E0000F11D8081B60190E00E94B9048110F5CFF8
:100E1000222009F442CEB60180E290E00E94B9049B
:100E20002A94F6CFF6018681978102C08FEF9FEF5B
:100E30002B96E2E10C94AC07FC01059061507040E8
:100E40000110D8F7809590958E0F9F1F0895FC0193
:100E50006150704001900110D8F7809590958E0FE9
:100E60009F1F0895FA01AA27283051F1203181F1FE
:100E7000E8946F936E7F6E5F7F4F8F4F9F4FAF4FA2
:100E8000B1E03ED0B4E03CD0670F781F891F9A1FB5
:100E9000A11D680F791F8A1F911DA11D6A0F711D69
:100EA000811D911DA11D20D009F468943F912AE075
:100EB000269F11243019305D3193DEF6CF0108955D
:100EC000462F4770405D4193B3E00FD0C9F7F6CF8E
:100ED000462F4F70405D4A3318F0495D31FD405256
:100EE000419302D0A9F7EACFB4E0A69597958795EC
:100EF00077956795BA95C9F70097610571050895CB
:100F00009B01AC010A2E0694579547953795279576
:100F1000BA95C9F7620F731F841F951FA01D08950E
:100F20002F923F924F925F926F927F928F929F92F9
:100F3000AF92BF92CF92DF92EF92FF920F931F93E7
:100F4000CF93DF93CDB7DEB7CA1BDB0B0FB6F89498
:100F5000DEBF0FBECDBF09942A88398848885F84D8
:100F60006E847D848C849B84AA84B984C884DF8049
:100F7000EE80FD800C811B81AA81B981CE0FD11D2D
:100F80000FB6F894DEBF0FBECDBFED010895F89403
:020F9000FFCF91
:100F920000008001200000000003000000000503A3
:100FA20017030000725461736B00715461736B001C
:100FB2006F6E5461736B006F66665461736B00539E
:100FC20074617274696E67207363686564756C65B9
:100FD200722077697468202564207461736B7300D2
:100FE2005363686564756C65722072756E6E696EA6
:020FF200670096
:00000001FF
