S0110000446172656475696E6F2E7372656378
S11300000C9434000C9451000C9451000C94510045
S11300100C9451000C9451000C9451000C94510018
S11300200C9451000C9451000C9451000C94530204
S11300300C9451000C9451000C9451000C945100F8
S11300400C9451000C9451000C9451000C945100E8
S11300500C9451000C9451000C9451000C945100D8
S11300600C9451000C94510011241FBECFEFD8E022
S1130070DEBFCDBF11E0A0E0B1E0EEEBF0E102C0E5
S113008005900D92AC38B107D9F722E0ACE8B1E0A5
S113009001C01D92AC37B207E1F70E94A4000C9492
S11300A05D080C940000C4E1D1E061E070E08DE0F3
S11300B090E00E945201DF93CF930E948B050F9032
S11300C00F90F3CFCCE1D1E080918C0190918D0120
S11300D00E9432039F938F93DF93CF930E948B05EB
S11300E080918C0190918D01019690938D01809364
S11300F08C0160E070E08DE090E00E9452010F906E
S11301000F900F900F90E0CFC8E2D1E080E090E034
S11301100E94EB009F938F93DF93CF930E948B05F4
S11301200F900F900F900F90F1CFC2E3D1E00E9497
S11301305A039F938F93DF93CF930E948B050F9065
S11301400F900F900F90F3CF0E94F10361E070E0E5
S11301508DE090E00E94070181E090E090938F0190
S113016080938E018EE891E09093910180939001A9
S11301700E9418032CE331E046E950E064E183E592
S113018090E00E94D40123E431E046E950E061E0CC
S113019084E890E00E94D40129E431E046E950E08B
S11301A06CE085E990E00E94D4012FE431E046E957
S11301B050E062E082E690E00E94D40180E50E9473
S11301C0AF0180E090E0089587E880937A0080E4AE
S11301D080937C000895ECE7F0E090818F70982B79
S11301E09083EAE7F0E0808180648083808184FFEB
S11301F0FDCF83E08A95F1F700002091780080918B
S1130200790090E0982F8827820F911D08958830F7
S1130210910500F56130710569F44AB121E030E0DF
S1130220B90102C0660F771F8A95E2F7CB01842BD0
S11302308AB90895672BA9F54AB121E030E0B901E4
S113024002C0660F771F8A95E2F7CB01809584235D
S11302508AB908959C01285031092630310508F5E2
S11302606130710571F444B1C90121E030E0B90194
S113027002C0660F771F8A95E2F7CB01842B84B9FD
S11302800895672B71F444B1089721E030E0B90177
S113029002C0660F771F8A95E2F7CB01809584230D
S11302A084B908958830910520F5161617065CF474
S11302B04BB121E030E0082E02C0220F331F0A9414
S11302C0E2F7242B2BB96115710599F44BB121E0A8
S11302D030E0082E02C0220F331F0A94E2F7209563
S11302E024232BB99C012850310926303105B8F05C
S11302F008959C012850310926303105F0F4161672
S113030017065CF445B1F90121E030E002C0220F88
S1130310331FEA95E2F7242B25B9672B71F445B115
S1130320089721E030E0B90102C0660F771F8A9573
S1130330E2F7CB018095842385B90895E1E8F0E0E4
S113034080818C608083EFE6F0E08081826080832E
S11303508CE390EF9093890080938800089520E7C0
S113036032E030939301209392018093970180911E
S113037096011F928F9387E591E09F938F930E943C
S11303808B052FEF87EA91E6215080409040E1F7FA
S113039000C0000078940F900F900F900F9089E7A1
S11303A091E00E94A105FBCFCF92DF92FF920F93C1
S11303B01F93CF93DF936C01F62EEA01890180919C
S11303C096018F5F809396018DE090E00E942E0449
S11303D0FC019093680280936702D182C082F68206
S11303E081E0878314862091690230916A028BE947
S11303F098E0821B930B95838483C20FD31FD09301
S11304006A02C09369021387028713821282A09141
S11304106502B091660218968D919C911997918707
S113042080871996FC93EE931897DF91CF911F91D3
S11304300F91FF90DF90CF900895E0919801F09193
S113044099018485833079F480859185909399010D
S113045080939801E0919801F091990182819381B0
S1130460892BA9F41FC080859185009759F4E091E8
S11304706502F0916602808591859093990180933D
S11304809801E8CF9093990180939801E3CF008479
S1130490F185E02D82819381892BC9F7F09399012D
S11304A0E093980108950F920FB6F8940F921F925B
S11304B02F923F924F925F926F927F928F929F9270
S11304C0AF92BF92CF92DF92EF92FF920F931F935E
S11304D02F933F934F935F936F937F938F939F9348
S11304E0AF93BF93CF93DF93EF93FF93A0919201C8
S11304F0B09193010DB60D920EB60D920E941D029D
S1130500E0919801F0919901CF01049690939301A1
S113051080939201A0919201B0919301CD91CDBFAE
S1130520DD91DEBF8781813059F47894E0919801A0
S1130530F091990117820190F081E02D09952BC06B
S1130540A0919201B0919301CD91CDBFDD91DEBF19
S1130550FF91EF91DF91CF91BF91AF919F918F91D7
S11305607F916F915F914F913F912F911F910F91C7
S1130570FF90EF90DF90CF90BF90AF909F908F90BF
S11305807F906F905F904F903F902F901F900F90AF
S11305900FBE0F901895FC01F8948081918101970A
S11305A0918380838081918199235CF4A091980147
S11305B0B09199011396FC93EE93129778940E944C
S11305C0530278940895DC01F8948D919C911197CD
S11305D0019611969C938E938D919C9111979923DA
S11305E0B4F4E0916502F09166020084F185E02D97
S11305F082819381A817B90741F00084F185E02D29
S113060082819381A817B907C1F713821282789463
S1130610089510929B0110929A018AE991E09093B7
S11306206F0280936E0210926D0210929C010895E5
S1130630F8940E949E010E94E400E0916502F0910A
S113064066021186108683E08487F0939901E09313
S1130650980110926A0210926902109296010E9407
S113066009030895CF93DF93C0916E02D0916F0276
S11306702881398124363105C4F420916D0230E09B
S1130680F901EE0FFF1FE356FE4F91838083C901EA
S1130690019664E670E00E94060480936D02CE0128
S11306A00E94E30280E090E002C08FEF9FEFDF91B1
S11306B0CF91089580916E0290916F020E94CB02B7
S11306C080919C0190E0FC01EE0FFF1FE356FE4F6A
S11306D020813181019664E670E00E9406048093D3
S11306E09C01C9010895CF93C82F8A3019F48DE075
S11306F00E947303E0ECF0E0808185FFFDCFC0939E
S1130700C60080E090E0CF910895E0ECF0E08081B5
S11307108823ECF78091C60090E008951092C500FC
S113072087E68093C40088E18093C10086E08093CB
S1130730C2000895CF93DF93C6E7D2E06A817B813C
S11307408BE190E00E944F056A817B818BE590E00C
S11307500E944F056A817B8188E490E00E944F05E6
S11307606A817B818BE190E00E944F056A817B81E5
S11307708BE590E00E944F056A817B818AE490E0DA
S11307800E944F05DF91CF910895CF93DF93C6E781
S1130790D2E06A817B818BE190E00E944F056A81FF
S11307A07B818BE590E00E944F056A817B8180E329
S11307B090E00E944F056A817B818DE690E00E9463
S11307C04F05DF91CF9108958091C000882344F4B0
S11307D0A6ECB0E0E0ECF0E08C9180818823E4F3B7
S11307E00895E6E7F2E086E091E0918380839383C5
S11307F082830E948E030E94C5030E949A030E9472
S1130800C5030E949A030E94E403089597FB072EF0
S113081016F4009407D077FD09D00E941A0407FC4F
S113082005D03EF4909581959F4F089570956195FC
S11308307F4F0895AA1BBB1B51E107C0AA1FBB1F12
S1130840A617B70710F0A61BB70B881F991F5A9558
S1130850A9F780959095BC01CD0108950F931F933E
S1130860CF93DF938230910510F482E090E0E09121
S11308707402F091750220E030E0A0E0B0E030971F
S113088019F1408151810281138148175907C8F039
S11308908417950769F4109731F012960C93129708
S11308A013961C9327C0009374021093750222C000
S11308B02115310519F04217530718F49A01BD01A7
S11308C0EF01DF01F801DBCF21153105F9F0281B19
S11308D0390B2430310580F48A819B8161157105BF
S11308E021F0FB019383828304C09093750280936B
S11308F07402FE01329644C0FE01E20FF31F81939D
S1130900919322503109398328833AC0209172028D
S113091030917302232B41F42091020130910301A1
S113092030937302209372022091000130910101EF
S11309302115310541F42DB73EB740910401509182
S11309400501241B350BE0917202F0917302E2174A
S1130950F307A0F42E1B3F0B2817390778F0AC01DE
S11309604E5F5F4F2417350748F04E0F5F1F5093BB
S11309707302409372028193919302C0E0E0F0E02D
S1130980CF01DF91CF911F910F910895CF93DF9302
S1130990009709F481C0FC01329713821282A0915E
S11309A07402B0917502109781F420813181820F15
S11309B0931F20917202309173022817390751F561
S11309C0F0937302E093720267C0ED0120E030E01F
S11309D0CE17DF0740F44A815B819E014115510522
S11309E0F1F0EA01F5CFD383C28340815181840FB2
S11309F0951FC817D90759F488819981840F951FC9
S1130A000296918380838A819B81938382832115BB
S1130A10310529F4F0937502E09374023DC0E901B5
S1130A20FB83EA8349915991C40FD51FEC17FD0745
S1130A3061F480819181840F951F0296E901998365
S1130A408883828193819B838A83E0E0F0E012961D
S1130A508D919C911397009719F0FD01DC01F7CF5C
S1130A608D919C9111979D012E5F3F4F820F931F93
S1130A7020917202309173022817390769F4309774
S1130A8029F4109275021092740202C01382128229
S1130A90B0937302A0937202DF91CF9108950F93E4
S1130AA01F93CF93DF93FB01238121FD03C08FEFBD
S1130AB09FEF2CC022FF16C04681578124813581C7
S1130AC04217530744F4A081B1819D012F5F3F4F2A
S1130AD0318320838C93268137812F5F3F4F378367
S1130AE0268314C08B01EC01FB010084F185E02D09
S1130AF00995892BE1F6D80116968D919C9117974B
S1130B00019617969C938E931697CE01DF91CF9101
S1130B101F910F910895A0E0B0E0E1E9F5E00C9495
S1130B203608AE014B5F5F4FFA0161917191AF01DD
S1130B3080917802909179020E94D105E2E00C94B0
S1130B4052080F931F93CF93DF93E0917802F091B3
S1130B507902238121FF1BC08C01D0E0C0E0F801A1
S1130B6081918F016091780270917902DB0118966E
S1130B70ED91FC911997882331F00995892B79F32C
S1130B80DFEFCFEFECCF8AE00995892B19F08FEFD7
S1130B909FEF02C08D2F9C2FDF91CF911F910F915A
S1130BA00895ABE0B0E0E7EDF5E00C9426086C01A5
S1130BB07B018A01FC0117821682838181FFCCC1EB
S1130BC0CE0101963C01F6019381F70193FD8591D5
S1130BD093FF81917F01882309F4BAC1853239F4E6
S1130BE093FD859193FF81917F01853229F4B601AC
S1130BF090E00E944F05E7CF912C212C312CFFE18E
S1130C00F315D8F08B3279F038F4803279F08332EE
S1130C10A1F4232D20611DC08D3261F0803369F46D
S1130C20232D216016C0832D8260382EE32DE460CD
S1130C303E2E2AC0F32DF8601DC037FC2DC020EDD8
S1130C40280F2A3040F08E32B9F436FC81C1232DAE
S1130C502064322E19C036FE06C08AE0989E200D0C
S1130C601124922E11C0EAE02E9E200D1124222E72
S1130C70F32DF0623F2E08C08C3621F4832D80685A
S1130C80382E02C0883641F4F70193FD859193FF15
S1130C9081917F018111B3CF982F9F7D955493301B
S1130CA028F40C5F1F4F9FE399830DC0833631F006
S1130CB0833771F0833509F059C021C0F801808170
S1130CC089830E5F1F4F88248394912C530113C092
S1130CD02801F2E04F0E511CF801A080B18036FECD
S1130CE003C0692D70E002C06FEF7FEFC5010E9461
S1130CF0BD074C018201F32DFF773F2E16C028015A
S1130D0022E0420E511CF801A080B18036FE03C0DF
S1130D10692D70E002C06FEF7FEFC5010E94B2073A
S1130D204C01F32DF0683F2E820133FC1BC0822D51
S1130D3090E088169906B0F4B60180E290E00E9433
S1130D404F052A94F4CFF50137FC859137FE819144
S1130D505F01B60190E00E944F0521102A9421E022
S1130D60821A91088114910471F7E8C0843611F055
S1130D70893641F5F80137FE07C0608171818281AF
S1130D8093810C5F1F4F08C060817181072E000C96
S1130D90880B990B0E5F1F4FF32DFF763F2E97FFA5
S1130DA009C090958095709561957F4F8F4F9F4FA7
S1130DB0F0683F2E2AE030E0A3010E94C807882E85
S1130DC0861845C0853731F4232D2F7EB22E2AE0B4
S1130DD030E025C0932D997FB92E8F36C1F018F4D9
S1130DE0883579F0B5C0803719F0883721F0B0C064
S1130DF0E92FE061BE2EB4FE0DC0FB2DF460BF2EC2
S1130E0009C034FE0AC0292F2660B22E06C028E08D
S1130E1030E005C020E130E002C020E132E0F8011A
S1130E20B7FE07C060817181828193810C5F1F4F7F
S1130E3006C06081718180E090E00E5F1F4FA301C6
S1130E400E94C807882E8618FB2DFF773F2E36FE9A
S1130E500DC0232D2E7FA22E891458F434FE0BC00E
S1130E6032FC09C0832D8E7EA82E05C0B82CA32C7D
S1130E7003C0B82C01C0B92CA4FE0FC0FE01E80DBC
S1130E80F11D8081803321F49A2D997EA92E09C009
S1130E90A2FE06C0B394B39404C08A2D867809F0E8
S1130EA0B394A3FC11C0A0FE06C0B21488F4280CAD
S1130EB0922C9B180EC0B21460F4B60180E290E04C
S1130EC00E944F05B394F7CFB21418F42B1802C044
S1130ED0982C212CA4FE10C0B60180E390E00E945F
S1130EE04F05A2FE17C0A1FC03C088E790E002C032
S1130EF088E590E0B6010CC08A2D867859F0A1FEF1
S1130F0002C08BE201C080E2A7FC8DE2B60190E052
S1130F100E944F05891438F4B60180E390E00E94E2
S1130F204F059A94F7CF8A94F301E80DF11D80815F
S1130F30B60190E00E944F058110F5CF222009F4FC
S1130F4042CEB60180E290E00E944F052A94F6CF8B
S1130F50F6018681978102C08FEF9FEF2B96E2E125
S1130F600C944208FC010590615070400110D8F7C0
S1130F70809590958E0F9F1F0895FC0161507040DD
S1130F8001900110D8F7809590958E0F9F1F0895BA
S1130F90FA01AA27283051F1203181F1E8946F93A6
S1130FA06E7F6E5F7F4F8F4F9F4FAF4FB1E03ED04C
S1130FB0B4E03CD0670F781F891F9A1FA11D680FEA
S1130FC0791F8A1F911DA11D6A0F711D811D911D1D
S1130FD0A11D20D009F468943F912AE0269F112492
S1130FE03019305D3193DEF6CF010895462F4770F6
S1130FF0405D4193B3E00FD0C9F7F6CF462F4F7051
S1131000405D4A3318F0495D31FD4052419302D0AE
S1131010A9F7EACFB4E0A695979587957795679554
S1131020BA95C9F700976105710508959B01AC0154
S11310300A2E06945795479537952795BA95C9F77B
S1131040620F731F841F951FA01D08952F923F9256
S11310504F925F926F927F928F929F92AF92BF92C4
S1131060CF92DF92EF92FF920F931F93CF93DF9370
S1131070CDB7DEB7CA1BDB0B0FB6F894DEBF0FBECD
S1131080CDBF09942A88398848885F846E847D841A
S11310908C849B84AA84B984C884DF80EE80FD801C
S11310A00C811B81AA81B981CE0FD11D0FB6F89492
S11110B0DEBF0FBECDBFED010895F894FFCF53
S11310BE00007C0220000000000300000000730307
S11310CE850300000A4F6E5461736B000A4F666607
S11310DE7461736B202564000A725461736B20254E
S11310EE64000A715461736B202564006F6E546141
S11310FE736B00725461736B00715461736B006F88
S113110E66665461736B005374617274696E672002
S113111E7363686564756C657220776974682025DD
S113112E64207461736B730A005363686564756C31
S10F113E65722072756E6E696E670000A9
S9030000FC
