S0110000446172656475696E6F2E7372656378
S11300000C9434000C9451000C9451000C94510045
S11300100C9451000C9451000C9451000C94510018
S11300200C9451000C9451000C9451000C946302F4
S11300300C9451000C9451000C9451000C945100F8
S11300400C9451000C9451000C9451000C945100E8
S11300500C9451000C9451000C9451000C945100D8
S11300600C9451000C94510011241FBECFEFD8E022
S1130070DEBFCDBF11E0A0E0B1E0E6E6FFE002C0E4
S113008005900D92A638B107D9F721E0A6E8B1E0B2
S113009001C01D92A63AB207E1F70E94D5000C9464
S11300A0B1070C940000C4E1D1E0DF93CF930E9428
S11300B0DF040F900F90F9CFCBE1D1E0DF93CF9322
S11300C00E94DF040F900F90F9CFC2E2D1E080913B
S11300D08801909189010E94DB02E0918801F091EE
S11300E08901808191819F938F93DF93CF930E94A5
S11300F0DF0461E070E08DE090E00E946001809197
S11301008801909189010E94E502E0918801F091B3
S11301108901808191819F938F93DF93CF930E9474
S1130120DF048DB79EB708960FB6F8949EBF0FBE36
S11301308DBFCDCFCDE2D1E009E311E080918801FC
S1130140909189010E94DB02E0918801F09189017C
S1130150808191819F938F93DF93CF930E94DF04DB
S11301601F930F930E94DF0460E070E08DE090E045
S11301700E94600180918801909189010E94E502AA
S1130180E0918801F0918901808191819F938F93FF
S1130190DF93CF930E94DF048DB79EB70A960FB604
S11301A0F8949EBF0FBE8DBFC9CF0E946D0361E05E
S11301B070E08DE090E00E94150181E090E0909362
S11301C087018093860186E891E09093890180936A
S11301D088010E94BD0122E431E046E950E064E177
S11301E085E690E00E94F80125E131E046E950E01F
S11301F061E083E590E00E94F8012CE131E046E9FA
S113020050E06CE08CE590E00E94F80129E431E0D4
S113021046E950E062E08AE990E00E94F80180E556
S11302200E94D30180E090E008958830910500F5A4
S11302306130710569F44AB121E030E0B90102C0CE
S1130240660F771F8A95E2F7CB01842B8AB908954C
S1130250672BA9F54AB121E030E0B90102C0660F6D
S1130260771F8A95E2F7CB01809584238AB9089594
S11302709C01285031092630310508F5613071059B
S113028071F444B1C90121E030E0B90102C0660F44
S1130290771F8A95E2F7CB01842B84B90895672BE5
S11302A071F444B1089721E030E0B90102C0660F4F
S11302B0771F8A95E2F7CB018095842384B908954A
S11302C08830910520F5161617065CF44BB121E031
S11302D030E0082E02C0220F331F0A94E2F7242BC9
S11302E02BB96115710599F44BB121E030E0082E6A
S11302F002C0220F331F0A94E2F7209524232BB95E
S11303009C012850310926303105B8F008959C012C
S11303102850310926303105F0F4161617065CF41E
S113032045B1F90121E030E002C0220F331FEA9504
S1130330E2F7242B25B9672B71F445B1089721E026
S113034030E0B90102C0660F771F8A95E2F7CB014E
S11303508095842385B90895E1E8F0E080818C607C
S11303608083EFE6F0E08081826080838CE390EF0D
S113037090938900809388000895F8940E94AC01BA
S1130380E0919201F09193011186108683E08487B5
S1130390F0939101E09390011092970110929601CD
S11303A010928E0108952AE931E030938B01209355
S11303B08A0180938F0180918E011F928F9381E532
S11303C091E09F938F930E94DF042FEF87EA91E6D9
S11303D0215080409040E1F700C0000078940F90D5
S11303E00F900F900F9083E791E00E94F504FBCFEC
S11303F0CF92DF92FF920F931F93CF93DF936C0101
S1130400F62EEA01890180918E018F5F80938E011F
S11304108DE090E00E948203FC019093950180930B
S11304209401D182C082F68281E087831486209170
S11304309601309197018BE998E0821B930B958389
S11304408483C20FD31FD0939701C093960113875F
S1130450028713821282A0919201B091930118969F
S11304608D919C911997918780871996FC93EE93AF
S11304701897DF91CF911F910F91FF90DF90CF904C
S11304800895E0919001F09191018485833039F4CD
S113049080859185909391018093900113C080850C
S11304A09185009759F4E0919201F0919301808530
S11304B09185909391018093900104C09093910150
S11304C08093900108950F920FB6F8940F921F92A3
S11304D02F923F924F925F926F927F928F929F9250
S11304E0AF92BF92CF92DF92EF92FF920F931F933E
S11304F02F933F934F935F936F937F938F939F9328
S1130500AF93BF93CF93DF93EF93FF93A0918A01AF
S1130510B0918B010DB60D920EB60D920E94410260
S1130520E0919001F0919101CF01049690938B0199
S113053080938A01A0918A01B0918B01CD91CDBFA6
S1130540DD91DEBF8781813059F47894E091900188
S1130550F091910117820190F081E02D09952BC053
S1130560A0918A01B0918B01CD91CDBFDD91DEBF09
S1130570FF91EF91DF91CF91BF91AF919F918F91B7
S11305807F916F915F914F913F912F911F910F91A7
S1130590FF90EF90DF90CF90BF90AF909F908F909F
S11305A07F906F905F904F903F902F901F900F908F
S11305B00FBE0F901895F894FC01208131812150D1
S11305C031093183208378940895F894FC012081C3
S11305D031812F5F3F4F3183208378940895CF93E7
S11305E0C82F8A3019F48DE00E94EF02E0ECF0E0AD
S11305F0808185FFFDCFC093C60080E090E0CF915D
S11306000895E0ECF0E080818823ECF78091C60047
S113061090E008951092C50087E68093C40088E1B5
S11306208093C10086E08093C2000895CF93DF9346
S1130630C0EAD1E06A817B818BE190E00E94A3044F
S11306406A817B818BE590E00E94A3046A817B81AF
S113065088E490E00E94A3046A817B818BE190E0AE
S11306600E94A3046A817B818BE590E00E94A3042D
S11306706A817B818AE490E00E94A304DF91CF9198
S11306800895CF93DF93C0EAD1E06A817B818BE147
S113069090E00E94A3046A817B818BE590E00E9434
S11306A0A3046A817B8180E390E00E94A3046A81B1
S11306B07B818DE690E00E94A304DF91CF910895A1
S11306C08091C000882344F4A6ECB0E0E0ECF0E0B4
S11306D08C9180818823E4F30895E0EAF1E086E0D8
S11306E091E091838083938382830E940A030E9412
S11306F041030E9416030E9441030E9416030E94B4
S1130700600308950F931F93CF93DF938230910575
S113071010F482E090E0E0919E01F0919F0120E0CE
S113072030E0A0E0B0E0309719F1408151810281BE
S1130730138148175907C8F08417950769F410976F
S113074031F012960C93129713961C9327C00093C2
S11307509E0110939F0122C02115310519F0421703
S1130760530718F49A01BD01EF01DF01F801DBCF53
S113077021153105F9F0281B390B2430310580F49B
S11307808A819B816115710521F0FB01938382832A
S113079004C090939F0180939E01FE01329644C051
S11307A0FE01E20FF31F81939193225031093983A3
S11307B028833AC020919C0130919D01232B41F460
S11307C0209102013091030130939D0120939C01FB
S11307D020910001309101012115310541F42DB71B
S11307E03EB74091040150910501241B350BE09163
S11307F09C01F0919D01E217F307A0F42E1B3F0B1F
S11308002817390778F0AC014E5F5F4F241735077E
S113081048F04E0F5F1F50939D0140939C018193BC
S1130820919302C0E0E0F0E0CF01DF91CF911F91FE
S11308300F910895CF93DF93009709F481C0FC01D1
S1130840329713821282A0919E01B0919F0110975A
S113085081F420813181820F931F20919C0130917A
S11308609D012817390751F5F0939D01E0939C01F0
S113087067C0ED0120E030E0CE17DF0740F44A8185
S11308805B819E0141155105F1F0EA01F5CFD38357
S1130890C28340815181840F951FC817D90759F429
S11308A088819981840F951F0296918380838A8120
S11308B09B81938382832115310529F4F0939F0151
S11308C0E0939E013DC0E901FB83EA83499159917C
S11308D0C40FD51FEC17FD0761F480819181840F4B
S11308E0951F0296E90199838883828193819B8372
S11308F08A83E0E0F0E012968D919C911397009723
S113090019F0FD01DC01F7CF8D919C9111979D01A8
S11309102E5F3F4F820F931F20919C0130919D01C8
S11309202817390769F4309729F410929F0110921F
S11309309E0102C013821282B0939D01A0939C0178
S1130940DF91CF9108950F931F93CF93DF93FB0112
S1130950238121FD03C08FEF9FEF2CC022FF16C01F
S113096046815781248135814217530744F4A0817D
S1130970B1819D012F5F3F4F318320838C9326816A
S113098037812F5F3F4F3783268314C08B01EC01DF
S1130990FB010084F185E02D0995892BE1F6D8014E
S11309A016968D919C911797019617969C938E930A
S11309B01697CE01DF91CF911F910F910895A0E07A
S11309C0B0E0E5EEF4E00C948A07AE014B5F5F4FB4
S11309D0FA0161917191AF018091A2019091A301FB
S11309E00E942505E2E00C94A6070F931F93CF9372
S11309F0DF93E091A201F091A301238121FF1BC0A9
S1130A008C01D0E0C0E0F80181918F016091A201D6
S1130A107091A301DB011896ED91FC91199788233D
S1130A2031F00995892B79F3DFEFCFEFECCF8AE032
S1130A300995892B19F08FEF9FEF02C08D2F9C2F02
S1130A40DF91CF911F910F910895ABE0B0E0EBE2FD
S1130A50F5E00C947A076C017B018A01FC01178292
S1130A601682838181FFCCC1CE0101963C01F6013F
S1130A709381F70193FD859193FF81917F018823F1
S1130A8009F4BAC1853239F493FD859193FF8191BC
S1130A907F01853229F4B60190E00E94A304E7CFD8
S1130AA0912C212C312CFFE1F315D8F08B3279F005
S1130AB038F4803279F08332A1F4232D20611DC0F3
S1130AC08D3261F0803369F4232D216016C0832DAB
S1130AD08260382EE32DE4603E2E2AC0F32DF860A8
S1130AE01DC037FC2DC020ED280F2A3040F08E3277
S1130AF0B9F436FC81C1232D2064322E19C036FE90
S1130B0006C08AE0989E200D1124922E11C0EAE0BE
S1130B102E9E200D1124222EF32DF0623F2E08C0AC
S1130B208C3621F4832D8068382E02C0883641F437
S1130B30F70193FD859193FF81917F018111B3CFDB
S1130B40982F9F7D9554933028F40C5F1F4F9FE39B
S1130B5099830DC0833631F0833771F0833509F002
S1130B6059C021C0F801808189830E5F1F4F8824FA
S1130B708394912C530113C02801F2E04F0E511CB1
S1130B80F801A080B18036FE03C0692D70E002C078
S1130B906FEF7FEFC5010E9411074C018201F32D15
S1130BA0FF773F2E16C0280122E0420E511CF801A7
S1130BB0A080B18036FE03C0692D70E002C06FEFE3
S1130BC07FEFC5010E9406074C01F32DF0683F2E0C
S1130BD0820133FC1BC0822D90E088169906B0F484
S1130BE0B60180E290E00E94A3042A94F4CFF501B8
S1130BF037FC859137FE81915F01B60190E00E9438
S1130C00A30421102A9421E0821A910881149104EA
S1130C1071F7E8C0843611F0893641F5F80137FEE2
S1130C2007C060817181828193810C5F1F4F08C06E
S1130C3060817181072E000C880B990B0E5F1F4F8A
S1130C40F32DFF763F2E97FF09C090958095709500
S1130C5061957F4F8F4F9F4FF0683F2E2AE030E021
S1130C60A3010E941C07882E861845C0853731F4DD
S1130C70232D2F7EB22E2AE030E025C0932D997FBC
S1130C80B92E8F36C1F018F4883579F0B5C08037A5
S1130C9019F0883721F0B0C0E92FE061BE2EB4FE10
S1130CA00DC0FB2DF460BF2E09C034FE0AC0292FED
S1130CB02660B22E06C028E030E005C020E130E016
S1130CC002C020E132E0F801B7FE07C06081718103
S1130CD0828193810C5F1F4F06C06081718180E027
S1130CE090E00E5F1F4FA3010E941C07882E8618F8
S1130CF0FB2DFF773F2E36FE0DC0232D2E7FA22E17
S1130D00891458F434FE0BC032FC09C0832D8E7E46
S1130D10A82E05C0B82CA32C03C0B82C01C0B92C34
S1130D20A4FE0FC0FE01E80DF11D8081803321F483
S1130D309A2D997EA92E09C0A2FE06C0B394B3943D
S1130D4004C08A2D867809F0B394A3FC11C0A0FED8
S1130D5006C0B21488F4280C922C9B180EC0B2144E
S1130D6060F4B60180E290E00E94A304B394F7CF4C
S1130D70B21418F42B1802C0982C212CA4FE10C015
S1130D80B60180E390E00E94A304A2FE17C0A1FC78
S1130D9003C088E790E002C088E590E0B6010CC08B
S1130DA08A2D867859F0A1FE02C08BE201C080E250
S1130DB0A7FC8DE2B60190E00E94A304891438F4E4
S1130DC0B60180E390E00E94A3049A94F7CF8A943A
S1130DD0F301E80DF11D8081B60190E00E94A304A7
S1130DE08110F5CF222009F442CEB60180E290E0D2
S1130DF00E94A3042A94F6CFF6018681978102C04B
S1130E008FEF9FEF2B96E2E10C949607FC0105907F
S1130E10615070400110D8F7809590958E0F9F1FF8
S1130E200895FC016150704001900110D8F780953D
S1130E3090958E0F9F1F0895FA01AA27283051F12B
S1130E40203181F1E8946F936E7F6E5F7F4F8F4FF7
S1130E509F4FAF4FB1E03ED0B4E03CD0670F781F56
S1130E60891F9A1FA11D680F791F8A1F911DA11D3B
S1130E706A0F711D811D911DA11D20D009F4689474
S1130E803F912AE0269F11243019305D3193DEF61C
S1130E90CF010895462F4770405D4193B3E00FD0D2
S1130EA0C9F7F6CF462F4F70405D4A3318F0495DBD
S1130EB031FD4052419302D0A9F7EACFB4E0A695A0
S1130EC09795879577956795BA95C9F700976105C2
S1130ED0710508959B01AC010A2E06945795479518
S1130EE037952795BA95C9F7620F731F841F951F0D
S1130EF0A01D08952F923F924F925F926F927F921E
S1130F008F929F92AF92BF92CF92DF92EF92FF9215
S1130F100F931F93CF93DF93CDB7DEB7CA1BDB0BC1
S1130F200FB6F894DEBF0FBECDBF09942A88398866
S1130F3048885F846E847D848C849B84AA84B9846D
S1130F40C884DF80EE80FD800C811B81AA81B98179
S1130F50CE0FD11D0FB6F894DEBF0FBECDBFED018D
S1090F600895F894FFCF90
S1130F660000A60120000000000300000000EF02BC
S1130F76010300000A725461736B000A71546173B1
S1130F866B000A4F6E5461736B202564000A4F662A
S1130F96665461736B202564000A4F666674617338
S1130FA66B006F6E5461736B006F66665461736B8E
S1130FB6005374617274696E67207363686564753F
S1130FC66C65722077697468202564207461736B7C
S1130FD6730A005363686564756C65722072756E76
S1090FE66E696E67000055
S9030000FC
